:1000000009C016C039C014C013C012C01DC011C031
:100010000FC00EC011241FBECFE9CDBF20E0A0E667
:10002000B0E001C01D92A236B207E1F733D072C032
:10003000E7CF1F920F920FB60F921124C49A0F9020
:100040000FBE0F901F9018951F920F920FB60F9230
:1000500011248F939F93C4988091600090916100C8
:10006000019690936100809360009F918F910F9013
:100070000FBE0F901F9018951F920F920FB60F9200
:10008000112410926100109260000F900FBE0F902B
:100090001F90189585B7877E806185BF91E095BDDB
:1000A00089E084BB84E187BB87E088BB8FE786BF9C
:1000B0008FE389BD82E08FBD93BF94E099BF85BB7C
:1000C000789490E2459B07C0109261001092600006
:1000D00089B7886009C020916000309161002333A6
:1000E000310518F089B7877F89BF20916000309172
:1000F00061002131374230F3C298C0989BBF85B769
:10010000806285BF889585B78F7D85BF1BBEC09AED
:08011000C29AD8CFF894FFCF8A
:00000001FF
