:1000000009C016C039C014C013C012C01DC011C031
:100010000FC00EC011241FBECFE9CDBF20E0A0E667
:10002000B0E001C01D92A236B207E1F733D064C040
:10003000E7CF1F920F920FB60F921124C49A0F9020
:100040000FBE0F901F9018951F920F920FB60F9230
:1000500011248F939F93C4988091600090916100C8
:10006000019690936100809360009F918F910F9013
:100070000FBE0F901F9018951F920F920FB60F9200
:10008000112410926100109260000F900FBE0F902B
:100090001F90189585B7877E806185BF91E095BDDB
:1000A0008CE187BB87E088BB8FE786BF8FE389BD84
:1000B00082E08FBD93BF94E099BF85BB80E28BBF88
:1000C0007894459B03C089B7886002C089B7877F51
:1000D00089BF80916000909161008133954788F3DA
:1000E000C298C09885B7806285BF889585B78F7D97
:0C00F00085BFC09AC29AE5CFF894FFCFFC
:00000001FF
